{
	"contracts/SolMinning.sol": {
		"SolMining": {
			"abi": [
				{
					"anonymous": false,
					"inputs": [
						{
							"indexed": true,
							"internalType": "address",
							"name": "user",
							"type": "address"
						},
						{
							"indexed": false,
							"internalType": "uint256",
							"name": "tokensMined",
							"type": "uint256"
						}
					],
					"name": "TokensMined",
					"type": "event"
				},
				{
					"inputs": [
						{
							"internalType": "address",
							"name": "user",
							"type": "address"
						}
					],
					"name": "getTokensMined",
					"outputs": [
						{
							"internalType": "uint256",
							"name": "",
							"type": "uint256"
						}
					],
					"stateMutability": "view",
					"type": "function"
				},
				{
					"inputs": [],
					"name": "initialize",
					"outputs": [],
					"stateMutability": "nonpayable",
					"type": "function"
				},
				{
					"inputs": [],
					"name": "mineTokens",
					"outputs": [],
					"stateMutability": "nonpayable",
					"type": "function"
				},
				{
					"inputs": [
						{
							"internalType": "address",
							"name": "",
							"type": "address"
						}
					],
					"name": "miningAccounts",
					"outputs": [
						{
							"internalType": "uint256",
							"name": "tokensMined",
							"type": "uint256"
						}
					],
					"stateMutability": "view",
					"type": "function"
				}
			],
			"devdoc": {
				"kind": "dev",
				"methods": {},
				"version": 1
			},
			"evm": {
				"assembly": "    /* \"contracts/SolMinning.sol\":70:1461  contract SolMining {... */\n  mstore(0x40, 0x80)\n  callvalue\n  dup1\n  iszero\n  tag_1\n  jumpi\n  0x00\n  dup1\n  revert\ntag_1:\n  pop\n  dataSize(sub_0)\n  dup1\n  dataOffset(sub_0)\n  0x00\n  codecopy\n  0x00\n  return\nstop\n\nsub_0: assembly {\n        /* \"contracts/SolMinning.sol\":70:1461  contract SolMining {... */\n      mstore(0x40, 0x80)\n      callvalue\n      dup1\n      iszero\n      tag_1\n      jumpi\n      0x00\n      dup1\n      revert\n    tag_1:\n      pop\n      jumpi(tag_2, lt(calldatasize, 0x04))\n      shr(0xe0, calldataload(0x00))\n      dup1\n      0x0161186b\n      eq\n      tag_3\n      jumpi\n      dup1\n      0x13461021\n      eq\n      tag_4\n      jumpi\n      dup1\n      0x8129fc1c\n      eq\n      tag_5\n      jumpi\n      dup1\n      0xd06db820\n      eq\n      tag_6\n      jumpi\n    tag_2:\n      0x00\n      dup1\n      revert\n        /* \"contracts/SolMinning.sol\":1330:1458  function getTokensMined(address user) external view returns (uint256) {... */\n    tag_3:\n      tag_7\n      0x04\n      dup1\n      calldatasize\n      sub\n      dup2\n      add\n      swap1\n      tag_8\n      swap2\n      swap1\n      tag_9\n      jump\t// in\n    tag_8:\n      tag_10\n      jump\t// in\n    tag_7:\n      mload(0x40)\n      tag_11\n      swap2\n      swap1\n      tag_12\n      jump\t// in\n    tag_11:\n      mload(0x40)\n      dup1\n      swap2\n      sub\n      swap1\n      return\n        /* \"contracts/SolMinning.sol\":773:1261  function mineTokens() external {... */\n    tag_4:\n      tag_13\n      tag_14\n      jump\t// in\n    tag_13:\n      stop\n        /* \"contracts/SolMinning.sol\":497:733  function initialize() external {... */\n    tag_5:\n      tag_15\n      tag_16\n      jump\t// in\n    tag_15:\n      stop\n        /* \"contracts/SolMinning.sol\":268:323  mapping(address => MiningAccount) public miningAccounts */\n    tag_6:\n      tag_17\n      0x04\n      dup1\n      calldatasize\n      sub\n      dup2\n      add\n      swap1\n      tag_18\n      swap2\n      swap1\n      tag_9\n      jump\t// in\n    tag_18:\n      tag_19\n      jump\t// in\n    tag_17:\n      mload(0x40)\n      tag_20\n      swap2\n      swap1\n      tag_12\n      jump\t// in\n    tag_20:\n      mload(0x40)\n      dup1\n      swap2\n      sub\n      swap1\n      return\n        /* \"contracts/SolMinning.sol\":1330:1458  function getTokensMined(address user) external view returns (uint256) {... */\n    tag_10:\n        /* \"contracts/SolMinning.sol\":1391:1398  uint256 */\n      0x00\n        /* \"contracts/SolMinning.sol\":1418:1432  miningAccounts */\n      dup1\n        /* \"contracts/SolMinning.sol\":1418:1438  miningAccounts[user] */\n      0x00\n        /* \"contracts/SolMinning.sol\":1433:1437  user */\n      dup4\n        /* \"contracts/SolMinning.sol\":1418:1438  miningAccounts[user] */\n      0xffffffffffffffffffffffffffffffffffffffff\n      and\n      0xffffffffffffffffffffffffffffffffffffffff\n      and\n      dup2\n      mstore\n      0x20\n      add\n      swap1\n      dup2\n      mstore\n      0x20\n      add\n      0x00\n      keccak256\n        /* \"contracts/SolMinning.sol\":1418:1450  miningAccounts[user].tokensMined */\n      0x00\n      add\n      sload\n        /* \"contracts/SolMinning.sol\":1411:1450  return miningAccounts[user].tokensMined */\n      swap1\n      pop\n        /* \"contracts/SolMinning.sol\":1330:1458  function getTokensMined(address user) external view returns (uint256) {... */\n      swap2\n      swap1\n      pop\n      jump\t// out\n        /* \"contracts/SolMinning.sol\":773:1261  function mineTokens() external {... */\n    tag_14:\n        /* \"contracts/SolMinning.sol\":815:850  MiningAccount storage miningAccount */\n      0x00\n        /* \"contracts/SolMinning.sol\":853:867  miningAccounts */\n      dup1\n        /* \"contracts/SolMinning.sol\":853:879  miningAccounts[msg.sender] */\n      0x00\n        /* \"contracts/SolMinning.sol\":868:878  msg.sender */\n      caller\n        /* \"contracts/SolMinning.sol\":853:879  miningAccounts[msg.sender] */\n      0xffffffffffffffffffffffffffffffffffffffff\n      and\n      0xffffffffffffffffffffffffffffffffffffffff\n      and\n      dup2\n      mstore\n      0x20\n      add\n      swap1\n      dup2\n      mstore\n      0x20\n      add\n      0x00\n      keccak256\n        /* \"contracts/SolMinning.sol\":815:879  MiningAccount storage miningAccount = miningAccounts[msg.sender] */\n      swap1\n      pop\n        /* \"contracts/SolMinning.sol\":994:995  0 */\n      0x00\n        /* \"contracts/SolMinning.sol\":965:978  miningAccount */\n      dup2\n        /* \"contracts/SolMinning.sol\":965:990  miningAccount.tokensMined */\n      0x00\n      add\n      sload\n        /* \"contracts/SolMinning.sol\":965:995  miningAccount.tokensMined == 0 */\n      sub\n        /* \"contracts/SolMinning.sol\":961:1053  if (miningAccount.tokensMined == 0) {... */\n      tag_23\n      jumpi\n        /* \"contracts/SolMinning.sol\":1040:1041  0 */\n      0x00\n        /* \"contracts/SolMinning.sol\":1012:1025  miningAccount */\n      dup2\n        /* \"contracts/SolMinning.sol\":1012:1037  miningAccount.tokensMined */\n      0x00\n      add\n        /* \"contracts/SolMinning.sol\":1012:1041  miningAccount.tokensMined = 0 */\n      dup2\n      swap1\n      sstore\n      pop\n        /* \"contracts/SolMinning.sol\":961:1053  if (miningAccount.tokensMined == 0) {... */\n    tag_23:\n        /* \"contracts/SolMinning.sol\":1137:1138  1 */\n      0x01\n        /* \"contracts/SolMinning.sol\":1108:1121  miningAccount */\n      dup2\n        /* \"contracts/SolMinning.sol\":1108:1133  miningAccount.tokensMined */\n      0x00\n      add\n      0x00\n        /* \"contracts/SolMinning.sol\":1108:1138  miningAccount.tokensMined += 1 */\n      dup3\n      dup3\n      sload\n      tag_24\n      swap2\n      swap1\n      tag_25\n      jump\t// in\n    tag_24:\n      swap3\n      pop\n      pop\n      dup2\n      swap1\n      sstore\n      pop\n        /* \"contracts/SolMinning.sol\":1215:1225  msg.sender */\n      caller\n        /* \"contracts/SolMinning.sol\":1203:1253  TokensMined(msg.sender, miningAccount.tokensMined) */\n      0xffffffffffffffffffffffffffffffffffffffff\n      and\n      0x08648b53d385d1bea6c696008c89e5bd32e2db0abd56aa1bce8958c25db7eda8\n        /* \"contracts/SolMinning.sol\":1227:1240  miningAccount */\n      dup3\n        /* \"contracts/SolMinning.sol\":1227:1252  miningAccount.tokensMined */\n      0x00\n      add\n      sload\n        /* \"contracts/SolMinning.sol\":1203:1253  TokensMined(msg.sender, miningAccount.tokensMined) */\n      mload(0x40)\n      tag_26\n      swap2\n      swap1\n      tag_12\n      jump\t// in\n    tag_26:\n      mload(0x40)\n      dup1\n      swap2\n      sub\n      swap1\n      log2\n        /* \"contracts/SolMinning.sol\":804:1261  {... */\n      pop\n        /* \"contracts/SolMinning.sol\":773:1261  function mineTokens() external {... */\n      jump\t// out\n        /* \"contracts/SolMinning.sol\":497:733  function initialize() external {... */\n    tag_16:\n        /* \"contracts/SolMinning.sol\":589:590  0 */\n      0x00\n        /* \"contracts/SolMinning.sol\":547:561  miningAccounts */\n      dup1\n        /* \"contracts/SolMinning.sol\":547:573  miningAccounts[msg.sender] */\n      0x00\n        /* \"contracts/SolMinning.sol\":562:572  msg.sender */\n      caller\n        /* \"contracts/SolMinning.sol\":547:573  miningAccounts[msg.sender] */\n      0xffffffffffffffffffffffffffffffffffffffff\n      and\n      0xffffffffffffffffffffffffffffffffffffffff\n      and\n      dup2\n      mstore\n      0x20\n      add\n      swap1\n      dup2\n      mstore\n      0x20\n      add\n      0x00\n      keccak256\n        /* \"contracts/SolMinning.sol\":547:585  miningAccounts[msg.sender].tokensMined */\n      0x00\n      add\n      sload\n        /* \"contracts/SolMinning.sol\":547:590  miningAccounts[msg.sender].tokensMined == 0 */\n      eq\n        /* \"contracts/SolMinning.sol\":539:630  require(miningAccounts[msg.sender].tokensMined == 0, \"Mining account already initialized.\") */\n      tag_28\n      jumpi\n      mload(0x40)\n      0x08c379a000000000000000000000000000000000000000000000000000000000\n      dup2\n      mstore\n      0x04\n      add\n      tag_29\n      swap1\n      tag_30\n      jump\t// in\n    tag_29:\n      mload(0x40)\n      dup1\n      swap2\n      sub\n      swap1\n      revert\n    tag_28:\n        /* \"contracts/SolMinning.sol\":670:725  MiningAccount({... */\n      mload(0x40)\n      dup1\n      0x20\n      add\n      0x40\n      mstore\n      dup1\n        /* \"contracts/SolMinning.sol\":712:713  0 */\n      0x00\n        /* \"contracts/SolMinning.sol\":670:725  MiningAccount({... */\n      dup2\n      mstore\n      pop\n        /* \"contracts/SolMinning.sol\":641:655  miningAccounts */\n      0x00\n        /* \"contracts/SolMinning.sol\":641:667  miningAccounts[msg.sender] */\n      dup1\n        /* \"contracts/SolMinning.sol\":656:666  msg.sender */\n      caller\n        /* \"contracts/SolMinning.sol\":641:667  miningAccounts[msg.sender] */\n      0xffffffffffffffffffffffffffffffffffffffff\n      and\n      0xffffffffffffffffffffffffffffffffffffffff\n      and\n      dup2\n      mstore\n      0x20\n      add\n      swap1\n      dup2\n      mstore\n      0x20\n      add\n      0x00\n      keccak256\n        /* \"contracts/SolMinning.sol\":641:725  miningAccounts[msg.sender] = MiningAccount({... */\n      0x00\n      dup3\n      add\n      mload\n      dup2\n      0x00\n      add\n      sstore\n      swap1\n      pop\n      pop\n        /* \"contracts/SolMinning.sol\":497:733  function initialize() external {... */\n      jump\t// out\n        /* \"contracts/SolMinning.sol\":268:323  mapping(address => MiningAccount) public miningAccounts */\n    tag_19:\n      mstore(0x20, 0x00)\n      dup1\n      0x00\n      mstore\n      keccak256(0x00, 0x40)\n      0x00\n      swap2\n      pop\n      swap1\n      pop\n      dup1\n      0x00\n      add\n      sload\n      swap1\n      pop\n      dup2\n      jump\t// out\n        /* \"#utility.yul\":88:205   */\n    tag_32:\n        /* \"#utility.yul\":197:198   */\n      0x00\n        /* \"#utility.yul\":194:195   */\n      dup1\n        /* \"#utility.yul\":187:199   */\n      revert\n        /* \"#utility.yul\":334:460   */\n    tag_34:\n        /* \"#utility.yul\":371:378   */\n      0x00\n        /* \"#utility.yul\":411:453   */\n      0xffffffffffffffffffffffffffffffffffffffff\n        /* \"#utility.yul\":404:409   */\n      dup3\n        /* \"#utility.yul\":400:454   */\n      and\n        /* \"#utility.yul\":389:454   */\n      swap1\n      pop\n        /* \"#utility.yul\":334:460   */\n      swap2\n      swap1\n      pop\n      jump\t// out\n        /* \"#utility.yul\":466:562   */\n    tag_35:\n        /* \"#utility.yul\":503:510   */\n      0x00\n        /* \"#utility.yul\":532:556   */\n      tag_50\n        /* \"#utility.yul\":550:555   */\n      dup3\n        /* \"#utility.yul\":532:556   */\n      tag_34\n      jump\t// in\n    tag_50:\n        /* \"#utility.yul\":521:556   */\n      swap1\n      pop\n        /* \"#utility.yul\":466:562   */\n      swap2\n      swap1\n      pop\n      jump\t// out\n        /* \"#utility.yul\":568:690   */\n    tag_36:\n        /* \"#utility.yul\":641:665   */\n      tag_52\n        /* \"#utility.yul\":659:664   */\n      dup2\n        /* \"#utility.yul\":641:665   */\n      tag_35\n      jump\t// in\n    tag_52:\n        /* \"#utility.yul\":634:639   */\n      dup2\n        /* \"#utility.yul\":631:666   */\n      eq\n        /* \"#utility.yul\":621:684   */\n      tag_53\n      jumpi\n        /* \"#utility.yul\":680:681   */\n      0x00\n        /* \"#utility.yul\":677:678   */\n      dup1\n        /* \"#utility.yul\":670:682   */\n      revert\n        /* \"#utility.yul\":621:684   */\n    tag_53:\n        /* \"#utility.yul\":568:690   */\n      pop\n      jump\t// out\n        /* \"#utility.yul\":696:835   */\n    tag_37:\n        /* \"#utility.yul\":742:747   */\n      0x00\n        /* \"#utility.yul\":780:786   */\n      dup2\n        /* \"#utility.yul\":767:787   */\n      calldataload\n        /* \"#utility.yul\":758:787   */\n      swap1\n      pop\n        /* \"#utility.yul\":796:829   */\n      tag_55\n        /* \"#utility.yul\":823:828   */\n      dup2\n        /* \"#utility.yul\":796:829   */\n      tag_36\n      jump\t// in\n    tag_55:\n        /* \"#utility.yul\":696:835   */\n      swap3\n      swap2\n      pop\n      pop\n      jump\t// out\n        /* \"#utility.yul\":841:1170   */\n    tag_9:\n        /* \"#utility.yul\":900:906   */\n      0x00\n        /* \"#utility.yul\":949:951   */\n      0x20\n        /* \"#utility.yul\":937:946   */\n      dup3\n        /* \"#utility.yul\":928:935   */\n      dup5\n        /* \"#utility.yul\":924:947   */\n      sub\n        /* \"#utility.yul\":920:952   */\n      slt\n        /* \"#utility.yul\":917:1036   */\n      iszero\n      tag_57\n      jumpi\n        /* \"#utility.yul\":955:1034   */\n      tag_58\n      tag_32\n      jump\t// in\n    tag_58:\n        /* \"#utility.yul\":917:1036   */\n    tag_57:\n        /* \"#utility.yul\":1075:1076   */\n      0x00\n        /* \"#utility.yul\":1100:1153   */\n      tag_59\n        /* \"#utility.yul\":1145:1152   */\n      dup5\n        /* \"#utility.yul\":1136:1142   */\n      dup3\n        /* \"#utility.yul\":1125:1134   */\n      dup6\n        /* \"#utility.yul\":1121:1143   */\n      add\n        /* \"#utility.yul\":1100:1153   */\n      tag_37\n      jump\t// in\n    tag_59:\n        /* \"#utility.yul\":1090:1153   */\n      swap2\n      pop\n        /* \"#utility.yul\":1046:1163   */\n      pop\n        /* \"#utility.yul\":841:1170   */\n      swap3\n      swap2\n      pop\n      pop\n      jump\t// out\n        /* \"#utility.yul\":1176:1253   */\n    tag_38:\n        /* \"#utility.yul\":1213:1220   */\n      0x00\n        /* \"#utility.yul\":1242:1247   */\n      dup2\n        /* \"#utility.yul\":1231:1247   */\n      swap1\n      pop\n        /* \"#utility.yul\":1176:1253   */\n      swap2\n      swap1\n      pop\n      jump\t// out\n        /* \"#utility.yul\":1259:1377   */\n    tag_39:\n        /* \"#utility.yul\":1346:1370   */\n      tag_62\n        /* \"#utility.yul\":1364:1369   */\n      dup2\n        /* \"#utility.yul\":1346:1370   */\n      tag_38\n      jump\t// in\n    tag_62:\n        /* \"#utility.yul\":1341:1344   */\n      dup3\n        /* \"#utility.yul\":1334:1371   */\n      mstore\n        /* \"#utility.yul\":1259:1377   */\n      pop\n      pop\n      jump\t// out\n        /* \"#utility.yul\":1383:1605   */\n    tag_12:\n        /* \"#utility.yul\":1476:1480   */\n      0x00\n        /* \"#utility.yul\":1514:1516   */\n      0x20\n        /* \"#utility.yul\":1503:1512   */\n      dup3\n        /* \"#utility.yul\":1499:1517   */\n      add\n        /* \"#utility.yul\":1491:1517   */\n      swap1\n      pop\n        /* \"#utility.yul\":1527:1598   */\n      tag_64\n        /* \"#utility.yul\":1595:1596   */\n      0x00\n        /* \"#utility.yul\":1584:1593   */\n      dup4\n        /* \"#utility.yul\":1580:1597   */\n      add\n        /* \"#utility.yul\":1571:1577   */\n      dup5\n        /* \"#utility.yul\":1527:1598   */\n      tag_39\n      jump\t// in\n    tag_64:\n        /* \"#utility.yul\":1383:1605   */\n      swap3\n      swap2\n      pop\n      pop\n      jump\t// out\n        /* \"#utility.yul\":1611:1791   */\n    tag_40:\n        /* \"#utility.yul\":1659:1736   */\n      0x4e487b7100000000000000000000000000000000000000000000000000000000\n        /* \"#utility.yul\":1656:1657   */\n      0x00\n        /* \"#utility.yul\":1649:1737   */\n      mstore\n        /* \"#utility.yul\":1756:1760   */\n      0x11\n        /* \"#utility.yul\":1753:1754   */\n      0x04\n        /* \"#utility.yul\":1746:1761   */\n      mstore\n        /* \"#utility.yul\":1780:1784   */\n      0x24\n        /* \"#utility.yul\":1777:1778   */\n      0x00\n        /* \"#utility.yul\":1770:1785   */\n      revert\n        /* \"#utility.yul\":1797:1988   */\n    tag_25:\n        /* \"#utility.yul\":1837:1840   */\n      0x00\n        /* \"#utility.yul\":1856:1876   */\n      tag_67\n        /* \"#utility.yul\":1874:1875   */\n      dup3\n        /* \"#utility.yul\":1856:1876   */\n      tag_38\n      jump\t// in\n    tag_67:\n        /* \"#utility.yul\":1851:1876   */\n      swap2\n      pop\n        /* \"#utility.yul\":1890:1910   */\n      tag_68\n        /* \"#utility.yul\":1908:1909   */\n      dup4\n        /* \"#utility.yul\":1890:1910   */\n      tag_38\n      jump\t// in\n    tag_68:\n        /* \"#utility.yul\":1885:1910   */\n      swap3\n      pop\n        /* \"#utility.yul\":1933:1934   */\n      dup3\n        /* \"#utility.yul\":1930:1931   */\n      dup3\n        /* \"#utility.yul\":1926:1935   */\n      add\n        /* \"#utility.yul\":1919:1935   */\n      swap1\n      pop\n        /* \"#utility.yul\":1954:1957   */\n      dup1\n        /* \"#utility.yul\":1951:1952   */\n      dup3\n        /* \"#utility.yul\":1948:1958   */\n      gt\n        /* \"#utility.yul\":1945:1981   */\n      iszero\n      tag_69\n      jumpi\n        /* \"#utility.yul\":1961:1979   */\n      tag_70\n      tag_40\n      jump\t// in\n    tag_70:\n        /* \"#utility.yul\":1945:1981   */\n    tag_69:\n        /* \"#utility.yul\":1797:1988   */\n      swap3\n      swap2\n      pop\n      pop\n      jump\t// out\n        /* \"#utility.yul\":1994:2163   */\n    tag_41:\n        /* \"#utility.yul\":2078:2089   */\n      0x00\n        /* \"#utility.yul\":2112:2118   */\n      dup3\n        /* \"#utility.yul\":2107:2110   */\n      dup3\n        /* \"#utility.yul\":2100:2119   */\n      mstore\n        /* \"#utility.yul\":2152:2156   */\n      0x20\n        /* \"#utility.yul\":2147:2150   */\n      dup3\n        /* \"#utility.yul\":2143:2157   */\n      add\n        /* \"#utility.yul\":2128:2157   */\n      swap1\n      pop\n        /* \"#utility.yul\":1994:2163   */\n      swap3\n      swap2\n      pop\n      pop\n      jump\t// out\n        /* \"#utility.yul\":2169:2391   */\n    tag_42:\n        /* \"#utility.yul\":2309:2343   */\n      0x4d696e696e67206163636f756e7420616c726561647920696e697469616c697a\n        /* \"#utility.yul\":2305:2306   */\n      0x00\n        /* \"#utility.yul\":2297:2303   */\n      dup3\n        /* \"#utility.yul\":2293:2307   */\n      add\n        /* \"#utility.yul\":2286:2344   */\n      mstore\n        /* \"#utility.yul\":2378:2383   */\n      0x65642e0000000000000000000000000000000000000000000000000000000000\n        /* \"#utility.yul\":2373:2375   */\n      0x20\n        /* \"#utility.yul\":2365:2371   */\n      dup3\n        /* \"#utility.yul\":2361:2376   */\n      add\n        /* \"#utility.yul\":2354:2384   */\n      mstore\n        /* \"#utility.yul\":2169:2391   */\n      pop\n      jump\t// out\n        /* \"#utility.yul\":2397:2763   */\n    tag_43:\n        /* \"#utility.yul\":2539:2542   */\n      0x00\n        /* \"#utility.yul\":2560:2627   */\n      tag_74\n        /* \"#utility.yul\":2624:2626   */\n      0x23\n        /* \"#utility.yul\":2619:2622   */\n      dup4\n        /* \"#utility.yul\":2560:2627   */\n      tag_41\n      jump\t// in\n    tag_74:\n        /* \"#utility.yul\":2553:2627   */\n      swap2\n      pop\n        /* \"#utility.yul\":2636:2729   */\n      tag_75\n        /* \"#utility.yul\":2725:2728   */\n      dup3\n        /* \"#utility.yul\":2636:2729   */\n      tag_42\n      jump\t// in\n    tag_75:\n        /* \"#utility.yul\":2754:2756   */\n      0x40\n        /* \"#utility.yul\":2749:2752   */\n      dup3\n        /* \"#utility.yul\":2745:2757   */\n      add\n        /* \"#utility.yul\":2738:2757   */\n      swap1\n      pop\n        /* \"#utility.yul\":2397:2763   */\n      swap2\n      swap1\n      pop\n      jump\t// out\n        /* \"#utility.yul\":2769:3188   */\n    tag_30:\n        /* \"#utility.yul\":2935:2939   */\n      0x00\n        /* \"#utility.yul\":2973:2975   */\n      0x20\n        /* \"#utility.yul\":2962:2971   */\n      dup3\n        /* \"#utility.yul\":2958:2976   */\n      add\n        /* \"#utility.yul\":2950:2976   */\n      swap1\n      pop\n        /* \"#utility.yul\":3022:3031   */\n      dup2\n        /* \"#utility.yul\":3016:3020   */\n      dup2\n        /* \"#utility.yul\":3012:3032   */\n      sub\n        /* \"#utility.yul\":3008:3009   */\n      0x00\n        /* \"#utility.yul\":2997:3006   */\n      dup4\n        /* \"#utility.yul\":2993:3010   */\n      add\n        /* \"#utility.yul\":2986:3033   */\n      mstore\n        /* \"#utility.yul\":3050:3181   */\n      tag_77\n        /* \"#utility.yul\":3176:3180   */\n      dup2\n        /* \"#utility.yul\":3050:3181   */\n      tag_43\n      jump\t// in\n    tag_77:\n        /* \"#utility.yul\":3042:3181   */\n      swap1\n      pop\n        /* \"#utility.yul\":2769:3188   */\n      swap2\n      swap1\n      pop\n      jump\t// out\n\n    auxdata: 0xa26469706673582212205bc4ef3531becacee04952b76b3d9a608b9d72c2e75f0bfabe0fa667cb0bd91e64736f6c634300081a0033\n}\n",
				"bytecode": {
					"linkReferences": {},
					"object": "6080604052348015600e575f80fd5b506104a88061001c5f395ff3fe608060405234801561000f575f80fd5b506004361061004a575f3560e01c80630161186b1461004e578063134610211461007e5780638129fc1c14610088578063d06db82014610092575b5f80fd5b61006860048036038101906100639190610318565b6100c2565b604051610075919061035b565b60405180910390f35b610086610109565b005b6100906101c9565b005b6100ac60048036038101906100a79190610318565b6102a1565b6040516100b9919061035b565b60405180910390f35b5f805f8373ffffffffffffffffffffffffffffffffffffffff1673ffffffffffffffffffffffffffffffffffffffff1681526020019081526020015f205f01549050919050565b5f805f3373ffffffffffffffffffffffffffffffffffffffff1673ffffffffffffffffffffffffffffffffffffffff1681526020019081526020015f2090505f815f01540361015b575f815f01819055505b6001815f015f82825461016e91906103a1565b925050819055503373ffffffffffffffffffffffffffffffffffffffff167f08648b53d385d1bea6c696008c89e5bd32e2db0abd56aa1bce8958c25db7eda8825f01546040516101be919061035b565b60405180910390a250565b5f805f3373ffffffffffffffffffffffffffffffffffffffff1673ffffffffffffffffffffffffffffffffffffffff1681526020019081526020015f205f015414610249576040517f08c379a000000000000000000000000000000000000000000000000000000000815260040161024090610454565b60405180910390fd5b60405180602001604052805f8152505f803373ffffffffffffffffffffffffffffffffffffffff1673ffffffffffffffffffffffffffffffffffffffff1681526020019081526020015f205f820151815f0155905050565b5f602052805f5260405f205f91509050805f0154905081565b5f80fd5b5f73ffffffffffffffffffffffffffffffffffffffff82169050919050565b5f6102e7826102be565b9050919050565b6102f7816102dd565b8114610301575f80fd5b50565b5f81359050610312816102ee565b92915050565b5f6020828403121561032d5761032c6102ba565b5b5f61033a84828501610304565b91505092915050565b5f819050919050565b61035581610343565b82525050565b5f60208201905061036e5f83018461034c565b92915050565b7f4e487b71000000000000000000000000000000000000000000000000000000005f52601160045260245ffd5b5f6103ab82610343565b91506103b683610343565b92508282019050808211156103ce576103cd610374565b5b92915050565b5f82825260208201905092915050565b7f4d696e696e67206163636f756e7420616c726561647920696e697469616c697a5f8201527f65642e0000000000000000000000000000000000000000000000000000000000602082015250565b5f61043e6023836103d4565b9150610449826103e4565b604082019050919050565b5f6020820190508181035f83015261046b81610432565b905091905056fea26469706673582212205bc4ef3531becacee04952b76b3d9a608b9d72c2e75f0bfabe0fa667cb0bd91e64736f6c634300081a0033",
					"opcodes": "PUSH1 0x80 PUSH1 0x40 MSTORE CALLVALUE DUP1 ISZERO PUSH1 0xE JUMPI PUSH0 DUP1 REVERT JUMPDEST POP PUSH2 0x4A8 DUP1 PUSH2 0x1C PUSH0 CODECOPY PUSH0 RETURN INVALID PUSH1 0x80 PUSH1 0x40 MSTORE CALLVALUE DUP1 ISZERO PUSH2 0xF JUMPI PUSH0 DUP1 REVERT JUMPDEST POP PUSH1 0x4 CALLDATASIZE LT PUSH2 0x4A JUMPI PUSH0 CALLDATALOAD PUSH1 0xE0 SHR DUP1 PUSH4 0x161186B EQ PUSH2 0x4E JUMPI DUP1 PUSH4 0x13461021 EQ PUSH2 0x7E JUMPI DUP1 PUSH4 0x8129FC1C EQ PUSH2 0x88 JUMPI DUP1 PUSH4 0xD06DB820 EQ PUSH2 0x92 JUMPI JUMPDEST PUSH0 DUP1 REVERT JUMPDEST PUSH2 0x68 PUSH1 0x4 DUP1 CALLDATASIZE SUB DUP2 ADD SWAP1 PUSH2 0x63 SWAP2 SWAP1 PUSH2 0x318 JUMP JUMPDEST PUSH2 0xC2 JUMP JUMPDEST PUSH1 0x40 MLOAD PUSH2 0x75 SWAP2 SWAP1 PUSH2 0x35B JUMP JUMPDEST PUSH1 0x40 MLOAD DUP1 SWAP2 SUB SWAP1 RETURN JUMPDEST PUSH2 0x86 PUSH2 0x109 JUMP JUMPDEST STOP JUMPDEST PUSH2 0x90 PUSH2 0x1C9 JUMP JUMPDEST STOP JUMPDEST PUSH2 0xAC PUSH1 0x4 DUP1 CALLDATASIZE SUB DUP2 ADD SWAP1 PUSH2 0xA7 SWAP2 SWAP1 PUSH2 0x318 JUMP JUMPDEST PUSH2 0x2A1 JUMP JUMPDEST PUSH1 0x40 MLOAD PUSH2 0xB9 SWAP2 SWAP1 PUSH2 0x35B JUMP JUMPDEST PUSH1 0x40 MLOAD DUP1 SWAP2 SUB SWAP1 RETURN JUMPDEST PUSH0 DUP1 PUSH0 DUP4 PUSH20 0xFFFFFFFFFFFFFFFFFFFFFFFFFFFFFFFFFFFFFFFF AND PUSH20 0xFFFFFFFFFFFFFFFFFFFFFFFFFFFFFFFFFFFFFFFF AND DUP2 MSTORE PUSH1 0x20 ADD SWAP1 DUP2 MSTORE PUSH1 0x20 ADD PUSH0 KECCAK256 PUSH0 ADD SLOAD SWAP1 POP SWAP2 SWAP1 POP JUMP JUMPDEST PUSH0 DUP1 PUSH0 CALLER PUSH20 0xFFFFFFFFFFFFFFFFFFFFFFFFFFFFFFFFFFFFFFFF AND PUSH20 0xFFFFFFFFFFFFFFFFFFFFFFFFFFFFFFFFFFFFFFFF AND DUP2 MSTORE PUSH1 0x20 ADD SWAP1 DUP2 MSTORE PUSH1 0x20 ADD PUSH0 KECCAK256 SWAP1 POP PUSH0 DUP2 PUSH0 ADD SLOAD SUB PUSH2 0x15B JUMPI PUSH0 DUP2 PUSH0 ADD DUP2 SWAP1 SSTORE POP JUMPDEST PUSH1 0x1 DUP2 PUSH0 ADD PUSH0 DUP3 DUP3 SLOAD PUSH2 0x16E SWAP2 SWAP1 PUSH2 0x3A1 JUMP JUMPDEST SWAP3 POP POP DUP2 SWAP1 SSTORE POP CALLER PUSH20 0xFFFFFFFFFFFFFFFFFFFFFFFFFFFFFFFFFFFFFFFF AND PUSH32 0x8648B53D385D1BEA6C696008C89E5BD32E2DB0ABD56AA1BCE8958C25DB7EDA8 DUP3 PUSH0 ADD SLOAD PUSH1 0x40 MLOAD PUSH2 0x1BE SWAP2 SWAP1 PUSH2 0x35B JUMP JUMPDEST PUSH1 0x40 MLOAD DUP1 SWAP2 SUB SWAP1 LOG2 POP JUMP JUMPDEST PUSH0 DUP1 PUSH0 CALLER PUSH20 0xFFFFFFFFFFFFFFFFFFFFFFFFFFFFFFFFFFFFFFFF AND PUSH20 0xFFFFFFFFFFFFFFFFFFFFFFFFFFFFFFFFFFFFFFFF AND DUP2 MSTORE PUSH1 0x20 ADD SWAP1 DUP2 MSTORE PUSH1 0x20 ADD PUSH0 KECCAK256 PUSH0 ADD SLOAD EQ PUSH2 0x249 JUMPI PUSH1 0x40 MLOAD PUSH32 0x8C379A000000000000000000000000000000000000000000000000000000000 DUP2 MSTORE PUSH1 0x4 ADD PUSH2 0x240 SWAP1 PUSH2 0x454 JUMP JUMPDEST PUSH1 0x40 MLOAD DUP1 SWAP2 SUB SWAP1 REVERT JUMPDEST PUSH1 0x40 MLOAD DUP1 PUSH1 0x20 ADD PUSH1 0x40 MSTORE DUP1 PUSH0 DUP2 MSTORE POP PUSH0 DUP1 CALLER PUSH20 0xFFFFFFFFFFFFFFFFFFFFFFFFFFFFFFFFFFFFFFFF AND PUSH20 0xFFFFFFFFFFFFFFFFFFFFFFFFFFFFFFFFFFFFFFFF AND DUP2 MSTORE PUSH1 0x20 ADD SWAP1 DUP2 MSTORE PUSH1 0x20 ADD PUSH0 KECCAK256 PUSH0 DUP3 ADD MLOAD DUP2 PUSH0 ADD SSTORE SWAP1 POP POP JUMP JUMPDEST PUSH0 PUSH1 0x20 MSTORE DUP1 PUSH0 MSTORE PUSH1 0x40 PUSH0 KECCAK256 PUSH0 SWAP2 POP SWAP1 POP DUP1 PUSH0 ADD SLOAD SWAP1 POP DUP2 JUMP JUMPDEST PUSH0 DUP1 REVERT JUMPDEST PUSH0 PUSH20 0xFFFFFFFFFFFFFFFFFFFFFFFFFFFFFFFFFFFFFFFF DUP3 AND SWAP1 POP SWAP2 SWAP1 POP JUMP JUMPDEST PUSH0 PUSH2 0x2E7 DUP3 PUSH2 0x2BE JUMP JUMPDEST SWAP1 POP SWAP2 SWAP1 POP JUMP JUMPDEST PUSH2 0x2F7 DUP2 PUSH2 0x2DD JUMP JUMPDEST DUP2 EQ PUSH2 0x301 JUMPI PUSH0 DUP1 REVERT JUMPDEST POP JUMP JUMPDEST PUSH0 DUP2 CALLDATALOAD SWAP1 POP PUSH2 0x312 DUP2 PUSH2 0x2EE JUMP JUMPDEST SWAP3 SWAP2 POP POP JUMP JUMPDEST PUSH0 PUSH1 0x20 DUP3 DUP5 SUB SLT ISZERO PUSH2 0x32D JUMPI PUSH2 0x32C PUSH2 0x2BA JUMP JUMPDEST JUMPDEST PUSH0 PUSH2 0x33A DUP5 DUP3 DUP6 ADD PUSH2 0x304 JUMP JUMPDEST SWAP2 POP POP SWAP3 SWAP2 POP POP JUMP JUMPDEST PUSH0 DUP2 SWAP1 POP SWAP2 SWAP1 POP JUMP JUMPDEST PUSH2 0x355 DUP2 PUSH2 0x343 JUMP JUMPDEST DUP3 MSTORE POP POP JUMP JUMPDEST PUSH0 PUSH1 0x20 DUP3 ADD SWAP1 POP PUSH2 0x36E PUSH0 DUP4 ADD DUP5 PUSH2 0x34C JUMP JUMPDEST SWAP3 SWAP2 POP POP JUMP JUMPDEST PUSH32 0x4E487B7100000000000000000000000000000000000000000000000000000000 PUSH0 MSTORE PUSH1 0x11 PUSH1 0x4 MSTORE PUSH1 0x24 PUSH0 REVERT JUMPDEST PUSH0 PUSH2 0x3AB DUP3 PUSH2 0x343 JUMP JUMPDEST SWAP2 POP PUSH2 0x3B6 DUP4 PUSH2 0x343 JUMP JUMPDEST SWAP3 POP DUP3 DUP3 ADD SWAP1 POP DUP1 DUP3 GT ISZERO PUSH2 0x3CE JUMPI PUSH2 0x3CD PUSH2 0x374 JUMP JUMPDEST JUMPDEST SWAP3 SWAP2 POP POP JUMP JUMPDEST PUSH0 DUP3 DUP3 MSTORE PUSH1 0x20 DUP3 ADD SWAP1 POP SWAP3 SWAP2 POP POP JUMP JUMPDEST PUSH32 0x4D696E696E67206163636F756E7420616C726561647920696E697469616C697A PUSH0 DUP3 ADD MSTORE PUSH32 0x65642E0000000000000000000000000000000000000000000000000000000000 PUSH1 0x20 DUP3 ADD MSTORE POP JUMP JUMPDEST PUSH0 PUSH2 0x43E PUSH1 0x23 DUP4 PUSH2 0x3D4 JUMP JUMPDEST SWAP2 POP PUSH2 0x449 DUP3 PUSH2 0x3E4 JUMP JUMPDEST PUSH1 0x40 DUP3 ADD SWAP1 POP SWAP2 SWAP1 POP JUMP JUMPDEST PUSH0 PUSH1 0x20 DUP3 ADD SWAP1 POP DUP2 DUP2 SUB PUSH0 DUP4 ADD MSTORE PUSH2 0x46B DUP2 PUSH2 0x432 JUMP JUMPDEST SWAP1 POP SWAP2 SWAP1 POP JUMP INVALID LOG2 PUSH5 0x6970667358 0x22 SLT KECCAK256 JUMPDEST 0xC4 0xEF CALLDATALOAD BALANCE 0xBE 0xCA 0xCE 0xE0 BLOBHASH MSTORE 0xB7 PUSH12 0x3D9A608B9D72C2E75F0BFABE 0xF 0xA6 PUSH8 0xCB0BD91E64736F6C PUSH4 0x4300081A STOP CALLER "
				},
				"gasEstimates": {
					"creation": {
						"codeDepositCost": "238400",
						"executionCost": "279",
						"totalCost": "238679"
					},
					"external": {
						"getTokensMined(address)": "2812",
						"initialize()": "7535",
						"mineTokens()": "infinite",
						"miningAccounts(address)": "2858"
					}
				},
				"methodIdentifiers": {
					"getTokensMined(address)": "0161186b",
					"initialize()": "8129fc1c",
					"mineTokens()": "13461021",
					"miningAccounts(address)": "d06db820"
				}
			},
			"storageLayout": {
				"storage": [
					{
						"astId": 9,
						"contract": "contracts/SolMinning.sol:SolMining",
						"label": "miningAccounts",
						"offset": 0,
						"slot": "0",
						"type": "t_mapping(t_address,t_struct(MiningAccount)4_storage)"
					}
				],
				"types": {
					"t_address": {
						"encoding": "inplace",
						"label": "address",
						"numberOfBytes": "20"
					},
					"t_mapping(t_address,t_struct(MiningAccount)4_storage)": {
						"encoding": "mapping",
						"key": "t_address",
						"label": "mapping(address => struct SolMining.MiningAccount)",
						"numberOfBytes": "32",
						"value": "t_struct(MiningAccount)4_storage"
					},
					"t_struct(MiningAccount)4_storage": {
						"encoding": "inplace",
						"label": "struct SolMining.MiningAccount",
						"members": [
							{
								"astId": 3,
								"contract": "contracts/SolMinning.sol:SolMining",
								"label": "tokensMined",
								"offset": 0,
								"slot": "0",
								"type": "t_uint256"
							}
						],
						"numberOfBytes": "32"
					},
					"t_uint256": {
						"encoding": "inplace",
						"label": "uint256",
						"numberOfBytes": "32"
					}
				}
			},
			"userdoc": {
				"kind": "user",
				"methods": {},
				"version": 1
			}
		}
	}
}